{
  "contractName": "Ownership",
  "abi": [
    {
      "inputs": [
        {
          "internalType": "uint256",
          "name": "",
          "type": "uint256"
        }
      ],
      "name": "commodities",
      "outputs": [
        {
          "internalType": "uint256",
          "name": "id",
          "type": "uint256"
        },
        {
          "internalType": "address",
          "name": "owner",
          "type": "address"
        },
        {
          "internalType": "string",
          "name": "details",
          "type": "string"
        }
      ],
      "stateMutability": "view",
      "type": "function",
      "constant": true
    },
    {
      "inputs": [
        {
          "internalType": "uint256",
          "name": "_id",
          "type": "uint256"
        },
        {
          "internalType": "string",
          "name": "_details",
          "type": "string"
        }
      ],
      "name": "registerCommodity",
      "outputs": [],
      "stateMutability": "nonpayable",
      "type": "function"
    },
    {
      "inputs": [
        {
          "internalType": "uint256",
          "name": "_id",
          "type": "uint256"
        },
        {
          "internalType": "address",
          "name": "_newOwner",
          "type": "address"
        }
      ],
      "name": "transferOwnership",
      "outputs": [],
      "stateMutability": "nonpayable",
      "type": "function"
    },
    {
      "inputs": [
        {
          "internalType": "uint256",
          "name": "_id",
          "type": "uint256"
        }
      ],
      "name": "getCommodity",
      "outputs": [
        {
          "components": [
            {
              "internalType": "uint256",
              "name": "id",
              "type": "uint256"
            },
            {
              "internalType": "address",
              "name": "owner",
              "type": "address"
            },
            {
              "internalType": "string",
              "name": "details",
              "type": "string"
            }
          ],
          "internalType": "struct Ownership.Commodity",
          "name": "",
          "type": "tuple"
        }
      ],
      "stateMutability": "view",
      "type": "function",
      "constant": true
    }
  ],
  "bytecode": "0x608060405234801561001057600080fd5b50610c2c806100206000396000f3fe608060405234801561001057600080fd5b506004361061004c5760003560e01c806329507f73146100515780632f63f34f1461006d578063a29bb0031461009d578063fcfd84e2146100b9575b600080fd5b61006b6004803603810190610066919061076d565b6100eb565b005b61008760048036038101906100829190610744565b61028b565b60405161009491906109bb565b60405180910390f35b6100b760048036038101906100b291906107a9565b61044e565b005b6100d360048036038101906100ce9190610744565b610506565b6040516100e2939291906109dd565b60405180910390f35b600073ffffffffffffffffffffffffffffffffffffffff1660008084815260200190815260200160002060010160009054906101000a900473ffffffffffffffffffffffffffffffffffffffff1673ffffffffffffffffffffffffffffffffffffffff161415610190576040517f08c379a00000000000000000000000000000000000000000000000000000000081526004016101879061097b565b60405180910390fd5b60008083815260200190815260200160002060010160009054906101000a900473ffffffffffffffffffffffffffffffffffffffff1673ffffffffffffffffffffffffffffffffffffffff163373ffffffffffffffffffffffffffffffffffffffff1614610233576040517f08c379a000000000000000000000000000000000000000000000000000000000815260040161022a9061099b565b60405180910390fd5b8060008084815260200190815260200160002060010160006101000a81548173ffffffffffffffffffffffffffffffffffffffff021916908373ffffffffffffffffffffffffffffffffffffffff1602179055505050565b6102936105d8565b600073ffffffffffffffffffffffffffffffffffffffff1660008084815260200190815260200160002060010160009054906101000a900473ffffffffffffffffffffffffffffffffffffffff1673ffffffffffffffffffffffffffffffffffffffff161415610338576040517f08c379a000000000000000000000000000000000000000000000000000000000815260040161032f9061097b565b60405180910390fd5b600080838152602001908152602001600020604051806060016040529081600082015481526020016001820160009054906101000a900473ffffffffffffffffffffffffffffffffffffffff1673ffffffffffffffffffffffffffffffffffffffff1673ffffffffffffffffffffffffffffffffffffffff1681526020016002820180546103c590610b27565b80601f01602080910402602001604051908101604052809291908181526020018280546103f190610b27565b801561043e5780601f106104135761010080835404028352916020019161043e565b820191906000526020600020905b81548152906001019060200180831161042157829003601f168201915b5050505050815250509050919050565b60405180606001604052808381526020013373ffffffffffffffffffffffffffffffffffffffff168152602001828152506000808481526020019081526020016000206000820151816000015560208201518160010160006101000a81548173ffffffffffffffffffffffffffffffffffffffff021916908373ffffffffffffffffffffffffffffffffffffffff16021790555060408201518160020190805190602001906104fe92919061060f565b509050505050565b60006020528060005260406000206000915090508060000154908060010160009054906101000a900473ffffffffffffffffffffffffffffffffffffffff169080600201805461055590610b27565b80601f016020809104026020016040519081016040528092919081815260200182805461058190610b27565b80156105ce5780601f106105a3576101008083540402835291602001916105ce565b820191906000526020600020905b8154815290600101906020018083116105b157829003601f168201915b5050505050905083565b604051806060016040528060008152602001600073ffffffffffffffffffffffffffffffffffffffff168152602001606081525090565b82805461061b90610b27565b90600052602060002090601f01602090048101928261063d5760008555610684565b82601f1061065657805160ff1916838001178555610684565b82800160010185558215610684579182015b82811115610683578251825591602001919060010190610668565b5b5090506106919190610695565b5090565b5b808211156106ae576000816000905550600101610696565b5090565b60006106c56106c084610a4c565b610a1b565b9050828152602081018484840111156106dd57600080fd5b6106e8848285610ae5565b509392505050565b6000813590506106ff81610bc8565b92915050565b600082601f83011261071657600080fd5b81356107268482602086016106b2565b91505092915050565b60008135905061073e81610bdf565b92915050565b60006020828403121561075657600080fd5b60006107648482850161072f565b91505092915050565b6000806040838503121561078057600080fd5b600061078e8582860161072f565b925050602061079f858286016106f0565b9150509250929050565b600080604083850312156107bc57600080fd5b60006107ca8582860161072f565b925050602083013567ffffffffffffffff8111156107e757600080fd5b6107f385828601610705565b9150509250929050565b61080681610aa9565b82525050565b61081581610aa9565b82525050565b600061082682610a7c565b6108308185610a87565b9350610840818560208601610af4565b61084981610bb7565b840191505092915050565b600061085f82610a7c565b6108698185610a98565b9350610879818560208601610af4565b61088281610bb7565b840191505092915050565b600061089a601883610a98565b91507f436f6d6d6f6469747920646f6573206e6f7420657869737400000000000000006000830152602082019050919050565b60006108da600d83610a98565b91507f4e6f7420746865206f776e6572000000000000000000000000000000000000006000830152602082019050919050565b6000606083016000830151610925600086018261095d565b50602083015161093860208601826107fd565b5060408301518482036040860152610950828261081b565b9150508091505092915050565b61096681610adb565b82525050565b61097581610adb565b82525050565b600060208201905081810360008301526109948161088d565b9050919050565b600060208201905081810360008301526109b4816108cd565b9050919050565b600060208201905081810360008301526109d5818461090d565b905092915050565b60006060820190506109f2600083018661096c565b6109ff602083018561080c565b8181036040830152610a118184610854565b9050949350505050565b6000604051905081810181811067ffffffffffffffff82111715610a4257610a41610b88565b5b8060405250919050565b600067ffffffffffffffff821115610a6757610a66610b88565b5b601f19601f8301169050602081019050919050565b600081519050919050565b600082825260208201905092915050565b600082825260208201905092915050565b6000610ab482610abb565b9050919050565b600073ffffffffffffffffffffffffffffffffffffffff82169050919050565b6000819050919050565b82818337600083830152505050565b60005b83811015610b12578082015181840152602081019050610af7565b83811115610b21576000848401525b50505050565b60006002820490506001821680610b3f57607f821691505b60208210811415610b5357610b52610b59565b5b50919050565b7f4e487b7100000000000000000000000000000000000000000000000000000000600052602260045260246000fd5b7f4e487b7100000000000000000000000000000000000000000000000000000000600052604160045260246000fd5b6000601f19601f8301169050919050565b610bd181610aa9565b8114610bdc57600080fd5b50565b610be881610adb565b8114610bf357600080fd5b5056fea26469706673582212209bdde8d3d4d7819683c7262de66b033943c60493f29bae0b90cbc84896e2c6b664736f6c63430008000033",
  "immutableReferences": {},
  "source": "// SPDX-License-Identifier: MIT\r\npragma solidity ^0.8.0;\r\n\r\ncontract Ownership {\r\n    struct Commodity {\r\n        uint id;\r\n        address owner;\r\n        string details;\r\n    }\r\n\r\n    mapping(uint => Commodity) public commodities;\r\n\r\n    // Register a new commodity\r\n    function registerCommodity(uint _id, string memory _details) public {\r\n        commodities[_id] = Commodity(_id, msg.sender, _details);\r\n    }\r\n\r\n    // Transfer ownership of a commodity\r\n    function transferOwnership(uint _id, address _newOwner) public {\r\n        require(commodities[_id].owner != address(0), \"Commodity does not exist\");\r\n        require(msg.sender == commodities[_id].owner, \"Not the owner\");\r\n        commodities[_id].owner = _newOwner;\r\n    }\r\n\r\n    // Fetch details of a commodity\r\n    function getCommodity(uint _id) public view returns (Commodity memory) {\r\n        require(commodities[_id].owner != address(0), \"Commodity does not exist\");\r\n        return commodities[_id];\r\n    }\r\n}\r\n",
  "sourcePath": "C:\\Users\\arjun\\OneDrive\\Desktop\\Computer_Science\\Blockchain\\Identity_management\\ownership-verification\\contracts\\Ownership.sol",
  "compiler": {
    "name": "solc",
    "version": "0.8.0+commit.c7dfd78e.Emscripten.clang"
  },
  "schemaVersion": "3.4.16",
  "updatedAt": "2024-09-21T05:45:23.063Z",
  "networkType": "ethereum",
  "devdoc": {
    "kind": "dev",
    "methods": {},
    "version": 1
  },
  "userdoc": {
    "kind": "user",
    "methods": {},
    "version": 1
  }
}